:0A0C3F00000102020303040405058E
:1005A500E4F513F512F511F510F51BF51AF519F526
:1005B50018C203C200C202C2011208B8000000003E
:1005C500007E017F008E238F24752B01752C1275FB
:1005D500210175221C752901752A3C752D01752E81
:1005E5005C90E680E030E70E852125852226852969
:1005F50027852A28800C852925852A268521278572
:100605002228EE54E0700302072575140075158045
:100615007E017F008E168F17C374EC9FFF74019EB9
:10062500CF2402CF3400FEE48F0F8E0EF50DF50CAE
:10063500F50BF50AF509F508AF0FAE0EAD0DAC0CCF
:10064500AB0BAA0AA909A808C3120C2E502AE51556
:10065500250BF582E514350AF58374CDF0E4FAF936
:10066500F8E50B2401F50BEA350AF50AE93509F534
:1006750009E83508F50880C0E4F50BF50AF509F534
:1006850008AF0FAE0EAD0DAC0CAB0BAA0AA909A8AD
:1006950008C3120C2E5037E517250BF582E51635E4
:1006A5000AF583E0FFE515250BF582E514350AF516
:1006B50083EFF0E4FAF9F8E50B2401F50BEA350AC6
:1006C500F50AE93509F509E83508F50880B3851413
:1006D5002385152474002480FF740134FFFEC3E5CF
:1006E5002C9FF52CE52B9EF52BC3E5269FF526E5DE
:1006F500259EF525C3E5289FF528E5279EF527C303
:10070500E5229FF522E5219EF521C3E52A9FF52ADD
:10071500E5299EF529C3E52E9FF52EE52D9EF52DA0
:10072500D2E843D82090E668E04409F090E65CE022
:10073500443DF0D2AF90E680E020E105D205120BF2
:100745001A90E680E054F7F0538EF8C203300105A5
:10075500120300C201300329120C555024C20312A2
:100765000B7520001690E682E030E704E020E1EF0B
:1007750090E682E030E604E020E0E4120B49120C3A
:0607850057120C6380C74F
:01078B00224B
:1003000090E6B9E070030203DC1470030204882451
:10031000FE700302052024FB70030203D614700351
:100320000203D01470030203C41470030203CA242E
:10033000056003020591120C59400302059D90E6E9
:10034000BBE024FE602C14604724FD60161460316D
:1003500024067066E52390E6B3F0E52490E6B4F059
:1003600002059DE52B90E6B3F0E52C90E6B4F00293
:10037000059DE52590E6B3F0E52690E6B4F002058C
:100380009DE52790E6B3F0E52890E6B4F002059DE0
:1003900090E6BAE0FF1207D5AA06A9077B01EA4951
:1003A0004B600DEE90E6B3F0EF90E6B4F002059DE1
:1003B00090E6A0E04401F002059D90E6A0E0440133
:1003C000F002059D120C1C02059D120C4902059DB0
:1003D00012078C02059D120C0A02059D120C5B404F
:1003E0000302059D90E6B8E0247F602E14603F2450
:1003F00002600302047EE5AA30E50890E74074013C
:10040000F08005E490E740F0E490E741F090E68A60
:10041000F090E68B7402F002059DE490E740F0A3B3
:10042000F090E68AF090E68B7402F002059D90E66B
:10043000BCE0547EFF7E00E0D3948040067C007DCB
:100440000180047C007D00EC4EFEED4F243FF582E0
:10045000740C3EF583E493FF3395E0FEEF24A1FF97
:10046000EE34E68F82F583E0540190E740F0E4A398
:10047000F090E68AF090E68B7402F002059D90E61B
:10048000A0E04401F002059D120C5D400302059DB1
:1004900090E6B8E024FE601D2402600302059D90F2
:1004A000E6BAE0B40105C20002059D90E6A0E04472
:1004B00001F002059D90E6BAE0705990E6BCE05468
:1004C0007EFF7E00E0D3948040067C007D018004A6
:1004D0007C007D00EC4EFEED4F243FF582740C3E17
:1004E000F583E493FF3395E0FEEF24A1FFEE34E6BD
:1004F0008F82F583E054FEF090E6BCE05480FF1359
:100500001313541FFFE0540F2F90E683F0E04420B4
:10051000F002059D90E6A0E04401F002059D807D7B
:10052000120C5F507890E6B8E024FE60232402703D
:100530006C90E6BAE0B40104D200806190E6BAE0C3
:10054000B402048058805690E6A0E04401F0804D4B
:1005500090E6BCE0547EFF7E00E0D3948040067CB1
:10056000007D0180047C007D00EC4EFEED4F243FB9
:10057000F582740C3EF583E493FF3395E0FEEF249F
:10058000A1FFEE34E68F82F583E04401F0800E8017
:100590000C120C61500790E6A0E04401F090E6A038
:0405A000E04480F0C3
:0105A4002234
:03003300020C516B
:040C510053D8EF3253
:100100001201000200000040B404F10000000102EE
:1001100000010A0600020000004001000902200060
:10012000010100A0320904000002FF0000000705E1
:1001300002020002000705860200020009022000F8
:10014000010100A0320904000002FF0000000705C1
:10015000040240000007058802400000040309046F
:100160001003430079007000720065007300730093
:100170007C0345005A002D0055005300420020002A
:100180004600580032002000470050004900460059
:10019000200074006F0020004500780074002000EB
:1001A0004600490046004F002000450078006100ED
:1001B0006D0070006C006500200075007300690020
:1001C0006E0067002000530069006E0067006C003D
:1001D000650020005400720061006E007300610031
:0E01E0006300740069006F006E007300000081
:100BF600421A030000411A0200C104411A000041D2
:030C06001A0100D0
:1008B80090E6007410F090E60274A8F00000009032
:1008C800E60374E0F000000090E670E04480F00079
:1008D800000090E6017403F000000090E600E04498
:1008E80002F090E61274A0F000000090E61474E0A4
:1008F800F000000090E6137402F000000090E61586
:10090800F000000000000090E6047480F000000091
:100918007402F00000007404F00000007406F00097
:1009280000007408F0000000E4F000000090E618F1
:10093800F00000007411F000000090E61A740DF049
:040948000000002289
:010C6300226E
:020C5500D322A8
:020C5700D322A6
:020C5900D322A4
:10078C0090E680E030E71E90E6247402F000000052
:10079C0090E626F0000000E490E625F000000090C2
:1007AC00E627F0801CE490E624F000000090E6269A
:1007BC00F000000090E6257440F000000090E62761
:0907CC00F090E6BAE0F51FD3221B
:100C0A0090E740E51FF0E490E68AF090E68B04F066
:020C1A00D322E3
:080C490090E6BAE0F51ED3228B
:100C1C0090E740E51EF0E490E68AF090E68B04F055
:020C2C00D322D1
:020C5B00D322A2
:020C5D00D322A0
:020C5F00D3229E
:020C6100D3229C
:100B9A00C0E0C083C082D2015391EF90E65D740138
:080BAA00F0D082D083D0E032CC
:100BCA00C0E0C083C0825391EF90E65D7404F0D018
:060BDA0082D083D0E0325E
:100BE000C0E0C083C0825391EF90E65D7402F0D004
:060BF00082D083D0E03248
:100AAC00C0E0C083C08290E680E030E70E8521254F
:100ABC00852226852927852A28800C852925852AA3
:100ACC00268521278522285391EF90E65D7410F03E
:070ADC00D082D083D0E0328C
:100BB200C0E0C083C082D2035391EF90E65D740817
:080BC200F0D082D083D0E032B4
:100AE300C0E0C083C08290E680E030E70E85212518
:100AF300852226852927852A28800C852925852A6C
:100B0300268521278522285391EF90E65D7420F0F6
:070B1300D082D083D0E03254
:010C6400325D
:010C6500325C
:010C6600325B
:010C6700325A
:010C68003259
:010C69003258
:010C6A003257
:010C6B003256
:010C6C003255
:010C6D003254
:010C6E003253
:010C6F003252
:010C70003251
:010C71003250
:010C7200324F
:010C7300324E
:010C7400324D
:010C7500324C
:010C7600324B
:010C7700324A
:010C78003249
:010C79003248
:010C7A003247
:010C7B003246
:010C7C003245
:010C7D003244
:010C7E003243
:010C7F003242
:010C80003241
:010C81003240
:010C8200323F
:010C8300323E
:010C8400323D
:010C8500323C
:010C8600323B
:010C8700323A
:1009D800AD07ED30E00D908100E0901A00F0A3E043
:1009E80054FEF0ED30E10D909100E0901A00F0A374
:1009F800E054FDF0ED30E20D90A100E0901A00F017
:100A0800A3E054FBF0ED30E30D90B100E0901A0044
:070A1800F0A3E054F7F02207
:100A1F00AD07ED30E00D908000E0901A00F0A3E0FC
:100A2F004401F0ED30E10D909000E0901A00F0A33A
:100A3F00E04402F0ED30E20D90A000E0901A00F0DB
:100A4F00A3E04404F0ED30E30D90B000E0901A0005
:070A5F00F0A3E04408F022BF
:100B490090E682E030E004E020E60B90E682E030B7
:100B5900E119E030E71590E680E04401F07F147E6A
:0C0B690000120A6690E680E054FEF022C4
:100B1A0030050990E680E0440AF0800790E680E01C
:100B2A004408F07FDC7E05120A6690E65D74FFF0E9
:0F0B3A0090E65FF05391EF90E680E054F7F022E1
:0207D500A90772
:1007D700AE2DAF2E8F828E83A3E064037017AD0119
:1007E70019ED7001228F828E83E07C002FFDEC3E95
:0807F700FEAF0580DFE4FEFF08
:0107FF0022D7
:100B750090E682E044C0F090E681F04387010000F2
:040B8500000000224A
:100A66008E1C8F1D90E600E054187012E51D2401BF
:100A7600FFE4351CC313F51CEF13F51D801590E636
:100A860000E05418FFBF100BE51D25E0F51DE51C21
:100A960033F51CE51D151DAE1C7002151C4E6005B8
:060AA600120B8980EE2214
:100B89007400F58690FDA57C05A3E582458370F97F
:010B99002239
:03004300020800B0
:03005300020800A0
:10080000020B9A00020BE000020BCA00020BB200BE
:10081000020AAC00020AE300020C6400020C65004C
:10082000020C6600020C6700020C6800020C6900F2
:10083000020C6A00020C6B00020C6C00020C6D00D2
:10084000020C6E00020C6500020C6F00020C7000BE
:10085000020C7100020C7200020C7300020C740096
:10086000020C7500020C6500020C6500020C6500AC
:10087000020C7600020C7700020C7800020C790062
:10088000020C7A00020C7B00020C7C00020C7D0042
:10089000020C7E00020C7F00020C8000020C810022
:1008A000020C8200020C8300020C8400020C850002
:0808B000020C8600020C870017
:0300000002094CA6
:0C094C00787FE4F6D8FD75812E02099337
:100C2E00EB9FF5F0EA9E42F0E99D42F0E89C45F01C
:010C3E002293
:100958000205A5E493A3F8E493A34003F68001F20B
:1009680008DFF48029E493A3F85407240CC8C333A0
:10097800C4540F4420C8834004F456800146F6DF6F
:10098800E4800B0102040810204080900BF6E47EFE
:10099800019360BCA3FF543F30E509541FFEE49364
:1009A800A360010ECF54C025E060A840B8E493A32B
:1009B800FAE493A3F8E493A3C8C582C8CAC583CA56
:1009C800F0A3C8C582C8CAC583CADFE9DEE780BE0E
:010C090000EA
:00000001FF
